:100000000C946C000C9494000C9494000C94940048
:100010000C9494000C9494000C9494000C94940010
:100020000C9494000C94C9020C9494000C949400C9
:100030000C9494000C9494000C9494000C949400F0
:100040000C9491040C9494000C94A2010C947C01E7
:100050000C9494000C9494000C9494000C949400D0
:100060000C9494000C94940005A84CCDB2D44EB9D5
:100070003836A9020C50B9918688083CA6AAAA2A4B
:10008000BE000000803F00000008000201000003E5
:100090000407000000000000000000000000250030
:1000A00028002B0000000000240027002A00040480
:1000B0000404040404040202020202020303030310
:1000C00003030102040810204080010204081020EC
:1000D0000102040810205B0A11241FBECFEFD8E0F4
:1000E000DEBFCDBF11E0A0E0B1E0E6ECFEE102C072
:1000F00005900D92AE32B107D9F722E0AEE2B1E041
:1001000001C01D92A335B207E1F710E0CCE6D0E0C4
:1001100004C02197FE010E94560FCB36D107C9F7C4
:100120000E94DB040C94610F0C940000089580E0A1
:1001300090E00895FC01538D448D252F30E0842FED
:1001400090E0821B930B541710F0CF9608950197FF
:100150000895FC01918D828D981761F0828DDF01E9
:10016000A80FB11D5D968C91928D9F5F9F73928FAA
:1001700090E008958FEF9FEF0895FC01918D828D9F
:10018000981731F0828DE80FF11D858D90E008956C
:100190008FEF9FEF0895FC01918D228D892F90E0C4
:1001A000805C9F4F821B91098F73992708958EE879
:1001B00091E00E94CB0021E0892B09F420E0822FFE
:1001C0000895FC01848DDF01A80FB11DA35ABF4F14
:1001D0002C91848D90E001968F739927848FA68946
:1001E000B7892C93A089B1898C91837080648C939A
:1001F000938D848D981306C00288F389E02D808149
:100200008F7D80830895EF92FF920F931F93CF937A
:10021000DF93EC0181E0888F9B8D8C8D981305C056
:10022000E889F989808185FD26C0F62E0B8D10E0C6
:100230000F5F1F4F0F731127E02E8C8DE8120CC03B
:100240000FB607FCFACFE889F989808185FFF5CFE1
:10025000CE010E94E100F1CF8B8DFE01E80FF11D70
:10026000E35AFF4FF0829FB7F8940B8FEA89FB891E
:10027000808180620AC09FB7F894EE89FF8960830D
:10028000E889F98980818370806480839FBF81E0E1
:1002900090E0DF91CF911F910F91FF90EF90089523
:1002A000CF93DF93EC01888D8823C9F0EA89FB891D
:1002B000808185FD05C0A889B9898C9186FD0FC014
:1002C0000FB607FCF5CF808185FFF2CFA889B989E9
:1002D0008C9185FFEDCFCE010E94E100E7CFDF9149
:1002E000CF91089580E090E0892B29F00E94D700FB
:1002F00081110C94000008951F920F920FB60F9277
:1003000011242F933F934F935F936F937F938F931A
:100310009F93AF93BF93EF93FF938EE891E00E947A
:10032000E100FF91EF91BF91AF919F918F917F91EC
:100330006F915F914F913F912F910F900FBE0F9052
:100340001F9018951F920F920FB60F9211242F93A2
:100350008F939F93EF93FF93E0919E01F0919F0104
:100360008081E091A401F091A50182FD12C09081ED
:100370008091A7018F5F8F732091A801821751F0A0
:10038000E091A701F0E0E257FE4F958F8093A7011F
:1003900001C08081FF91EF919F918F912F910F90DC
:1003A0000FBE0F901F9018954F925F926F927F92A1
:1003B0008F929F92AF92BF92CF92DF92EF92FF9275
:1003C000CF93DF9300D000D000D0CDB7DEB79E83AF
:1003D0008D8349835A836B837C83FC01C080D180E9
:1003E000E280F3804480558066807780A701960183
:1003F000C701B6010E94140E4B015C01A3019201DA
:10040000C301B2010E94140E9B01AC01C501B401ED
:100410000E94000C0E948F0E4B015C0120E030E036
:10042000A9010E946C0C882389F0A5019401C301E5
:10043000B2010E94760C2B013C01A5019401C70179
:10044000B6010E94760C9B01AC0105C0412C512CD9
:100450003201A301920169817A818B819C810E9482
:10046000140EED81FE816083718382839383A301E7
:10047000920169817A818B819C810E94140EED81A9
:10048000FE81648375838683978326960FB6F894DE
:10049000DEBF0FBECDBFDF91CF91FF90EF90DF9019
:1004A000CF90BF90AF909F908F907F906F905F9014
:1004B0004F900895DC01EC918FEF8E0F883000F59E
:1004C0006E3EB2E07B073CF06B3C88E078072CF096
:1004D0006AEC78E002C06EEE72E068507109F0E0FC
:1004E000CB01880F892F881F990B9F01220F331F83
:1004F000E20FF31FE159FE4F8183660F609562831F
:1005000008950F931F93CF938C01C62F80916E0196
:10051000811122C0EFE6F1E087E891E03BE027E5BA
:100520003483258333968E179F07D1F78EE380930C
:10053000700110926D0110926C0110927000109277
:10054000B00082E08093B1001092B20081E087BBDE
:100550008093700080936E01D8018C91882399F06C
:100560008C2F0E94B503D801EC91F0E0CF01880FE9
:10057000991FE80FF91FE159FE4FCF718081807EEE
:10058000C82BC062C083F8018081CF911F910F9169
:1005900008951F920F920FB60F9211242F933F933D
:1005A0004F935F936F937F938F939F93AF93BF937B
:1005B000EF93FF9380916C018F5F80936C0180912A
:1005C0006D0120916C0190E0FC01EE0FFF1F8E0F7A
:1005D0009F1FFC01E159FE4F818182130FC0809162
:1005E0006D0190E0FC01EE0FFF1F8E0F9F1FFC01BD
:1005F000E159FE4F82818093B20065C080916D0108
:1006000020916C0190E0FC01EE0FFF1F8E0F9F1FE9
:10061000FC01E159FE4F8181821708F054C080919E
:100620006D0190E0FC01EE0FFF1F8E0F9F1FFC017C
:10063000E159FE4F808185FF10C080916D0190E0EF
:10064000FC01EE0FFF1F8E0F9F1FFC01E159FE4FB3
:10065000808160E08F710E94E60380916D018F5F61
:1006600080936D0110926C011092B20080916D0127
:10067000882319F180916D018930F8F480916D0122
:1006800090E0FC01EE0FFF1F8E0F9F1FFC01E15950
:10069000FE4F808185FF17C080916D0190E0FC01C5
:1006A000EE0FFF1F8E0F9F1FFC01E159FE4F80814F
:1006B00061E08F710E94E60306C080916D01893070
:1006C00010F010926D01FF91EF91BF91AF919F914A
:1006D0008F917F916F915F914F913F912F910F90EB
:1006E0000FBE0F901F901895CF93DF93CEE2D1E00D
:1006F0006881798183E00E9433046A817B8185E08F
:100700000E9433046C817D8186E0DF91CF910C944F
:100710003304CF92DF92EF92FF920F931F93CF9308
:10072000DF936C017A018B01C0E0D0E0CE15DF05CC
:1007300081F0D8016D918D01D601ED91FC91019070
:10074000F081E02DC6010995892B11F02196EECF9D
:100750007E01C701DF91CF911F910F91FF90EF9024
:10076000DF90CF9008950E945C0F90E0FC01EE5363
:10077000FF4F2491FC01E255FF4F8491882399F0AB
:1007800090E0880F991FFC01EC55FF4FA591B491A3
:10079000FC01E656FF4F859194918FB7F894EC9148
:1007A000E22BEC938FBF0895009769F0FC01019054
:1007B0000020E9F73197AF01481B590BBC018EE8C7
:1007C00091E00C94890380E090E0089590E0FC01B2
:1007D000EA57FF4F2491FC01EE53FF4F3491FC0187
:1007E000E255FF4FE491EE2309F43CC0222339F196
:1007F000233091F038F42130A9F0223001F584B58E
:100800008F7D12C0273091F02830A1F02430B9F448
:10081000809180008F7D03C0809180008F778093CE
:1008200080000DC084B58F7784BD09C08091B00071
:100830008F7703C08091B0008F7D8093B000F0E08F
:10084000EE0FFF1FE656FF4FA591B4919FB7F894A6
:10085000611104C08C913095382302C0EC913E2B7D
:100860003C939FBF08951F93CF93DF93182FEB0105
:100870000E94B503209711F460E004C0CF3FD1057A
:1008800039F461E0812FDF91CF911F910C94E60341
:10089000E12FF0E0EA57FF4FE491E330F9F048F43C
:1008A000E130B9F0E230A1F584B5806284BDC8BD05
:1008B00034C0E730E9F0E83019F1E43049F58091CF
:1008C0008000806280938000D0938B00C0938A0068
:1008D00024C084B5806884BDC7BD1FC080918000DE
:1008E000806880938000D0938900C093880015C0F1
:1008F0008091B00080688093B000C093B3000DC0B9
:100900008091B00080628093B000C093B40005C0B5
:10091000C038D1050CF0B5CFAFCFDF91CF911F918B
:1009200008951F920F920FB60F9211242F933F93A9
:100930008F939F93AF93BF9380918A0190918B0186
:10094000A0918C01B0918D013091510223E0230FD1
:100950002D3720F40196A11DB11D05C026E8230FF7
:100960000296A11DB11D2093510280938A0190939C
:100970008B01A0938C01B0938D0180914D029091D9
:100980004E02A0914F02B09150020196A11DB11DDF
:1009900080934D0290934E02A0934F02B093500269
:1009A000BF91AF919F918F913F912F910F900FBE6B
:1009B0000F901F901895CF93DF93CDB7DEB7A19717
:1009C0000FB6F894DEBF0FBECDBF789484B58260B9
:1009D00084BD84B5816084BD85B5826085BD85B5E3
:1009E000816085BD80916E00816080936E00109261
:1009F00081008091810082608093810080918100DC
:100A0000816080938100809180008160809380006C
:100A10008091B10084608093B1008091B0008160CA
:100A20008093B00080917A00846080937A008091F6
:100A30007A00826080937A0080917A00816080934E
:100A40007A0080917A00806880937A001092C100C9
:100A50001092640110926501109266011092670174
:100A6000E0919E01F0919F0182E08083E0919A01E4
:100A7000F0919B011082E0919C01F0919D018FEC1F
:100A800080831092A601E091A201F091A30186E07B
:100A90008083E091A001F091A10180818061808339
:100AA000E091A001F091A101808188608083E091B4
:100AB000A001F091A101808180688083E091A00174
:100AC000F091A10180818F7D80838CE191E00E9473
:100AD000D4038AE291E00E94D4038AE397E0A0E085
:100AE000B0E08093380190933901A0933A01B0931C
:100AF0003B018093340190933501A0933601B0936C
:100B0000370168E070E08CE492E00E94810267E0C7
:100B100070E08BE492E00E9481026AE377E08CE46B
:100B200092E00E945A026AE377E08BE492E00E942E
:100B30005A028DE00E94B50383E00E94B50385E070
:100B40000E94B50386E00E94B5038CE591E0ECE3DA
:100B5000F1E021E521938E179F07E1F786E0E4E0BD
:100B6000F1E0AEE2B1E001900D928A95E1F70E94CA
:100B70007403A0EC2A2EA2E13A2E2FB7F8948091AC
:100B80008A0190918B01A0918C01B0918D012FBFB2
:100B90008093680190936901A0936A01B0936B01FF
:100BA00020E420937C0080917A00806480937A0016
:100BB00080917A0086FDFCCF609178008091790069
:100BC00070E0782B64517109C1010E941F0F6235DA
:100BD00008F061E580915C0190915D01FC01E45CAD
:100BE000FE4F693008F469E06083ECE3F1E020E057
:100BF00030E04191240F311D41E0EC35F407C9F795
:100C0000F5E035952795FA95E1F730936301209348
:100C10006201019660E270E00E941F0F90935D01F7
:100C200080935C01409168015091690160916A0173
:100C300070916B018091640190916501A0916601B2
:100C4000B091670188519C4FAF4FBF4F84179507F4
:100C5000A607B70708F074C12E31310508F070C13E
:100C6000409364015093650160936601709367013E
:100C7000E2E0CE2ED12C0E94450B20E030E040E196
:100C800050E00E949C0B0E94200D20E030E040E8E4
:100C900055E30E94140E2BED3FE049EC50E40E9416
:100CA000140E2B013C010E94710C26E636E646EE3E
:100CB0005EE30E94140E4B015C01C301B2010E946D
:100CC000810E2B013C0120E030E0A901B401C501F7
:100CD0000E940F0E18162CF520E030E040E85FE38C
:100CE000B401C5010E946C0C87FF1BC026E636E6E6
:100CF00046EE5EE3C301B2010E94140E7B018C013B
:100D000020E030E0A9010E940F0E181654F420E0F4
:100D100030E040E85FE3B701C8010E946C0C87FD3A
:100D2000AFC051E0C51AD10809F0A5CF0E94450B0C
:100D30000E94450B8090430290904402A09045028F
:100D4000B090460226E636E646EE5EE3C501B40103
:100D50000E94000C6B017C0120E030E040E85FE382
:100D60000E940F0E181694F526E636E646EE5EE370
:100D7000C501B4010E94FF0B20E030E040E859E4D7
:100D80000E94140E0E94E80C161617061806190683
:100D900014F40E94450B8090470290904802A09066
:100DA0004902B0904A0226E636E646EE5EE3C50109
:100DB000B4010E94000C6B017C0120E030E040E8AF
:100DC0005FE30E940F0E18168CF04AC020E030E05E
:100DD00040E859E4C701B6010E94140E0E94E80CD5
:100DE0006115710580419105B4F6D3CF26E636E64C
:100DF00046EE5EE3C501B4010E94FF0B20E030E047
:100E000040E859E40E94140E0E94E80C16161706DA
:100E10001806190614F40E94450B0E94450B20E0A9
:100E200030E040E150E00E949C0B0E94200D20E049
:100E300030E040E855E30E94140E7B018C010E94D3
:100E4000450B20E030E040E150E00E949C0B0E9406
:100E5000200D20E030E040E855E30E94140E12C05F
:100E600020E030E040E859E4C701B6010E94140ECA
:100E70000E94E80C611571058041910574F6CBCF95
:100E8000B401C5014B015C0180923B0290923C028F
:100E9000A0923D02B0923E02C701D80180933F026A
:100EA00090934002A0934102B0934202C09062012D
:100EB000D09063010D2C000CEE08FF08F7FE22C055
:100EC0006DE28EE891E00E94030122273327A901F9
:100ED0002C193D094E095F0919A28E010F5D1F4FA4
:100EE000CA01B9012AE030E040E050E00E94CE0B98
:100EF000605DF80162938F012115310541055105AF
:100F000079F717C0A701960119A28E010F5D1F4F37
:100F1000CA01B9012AE030E040E050E00E94CE0B67
:100F2000605DF80162938F0121153105410551057E
:100F300079F7C8010E94D4038AE291E00E94D403A9
:100F400020914702309148024091490250914A0253
:100F500060913F0270914002809141029091420263
:100F60000E94FF0B4B015C0120914302309144022F
:100F7000409145025091460260913B0270913C02C3
:100F800080913D0290913E020E94FF0B2B013C019B
:100F900060932B0270932C0280932D0290932E026B
:100FA00080922F0290923002A0923102B0923202CF
:100FB0009B01AC010E94140E6B017C01A501940100
:100FC000C501B4010E94140E9B01AC01C701B6011A
:100FD0000E94000C0E948F0E7B018C01CB01D80176
:100FE00080935E0190935F01A0936001B0936101D3
:100FF00020913302309134024091350250913602F3
:10100000C301B2010E94000C2B013C01609333022A
:101010007093340280933502909336022091370208
:10102000309138024091390250913A02C501B40121
:101030000E94000C4B015C016093370270933802F0
:101040008093390290933A02A3019201C301B20145
:101050000E94140E2B013C01A5019401C501B401AD
:101060000E94140E9B01AC01C301B2010E94000C4E
:101070000E948F0E26EA3BE944E45AE30E940F0ED9
:10108000181644F446EA5BE964E47AE383E392E009
:101090000E94D4018090370290903802A0903902CB
:1010A000B0903A026091330270913402809135021F
:1010B0009091360269837A838B839C838D829E8292
:1010C000AF82B8869B01AC010E94140E2B013C013B
:1010D000A5019401C501B4010E94140E9B01AC014D
:1010E000C301B2010E94000C0E948F0E5B016C01D3
:1010F0009701A8010E940F0E181614F457016801F9
:10110000A501B601CE0101960E94D40120E030E095
:10111000A901B701C8010E946C0C87FD11C02AE922
:1011200039E949E15EE3B701C8010E940F0E1816C4
:101130005CF46AE9E62E79E9F72E09E11EE304C0C2
:10114000E12CF12C00E010E02AE939E949E15EE305
:10115000B701C8010E94760C6B017C0120E030E0F1
:1011600040EC50E40E94140E20E030E040E751E4EF
:101170000E94FF0BA70196010E94140E20E030E0B0
:1011800040E251E40E94000C4B015C01A701960172
:10119000C701B6010E94140EA70196010E94140E09
:1011A0009B01AC01C501B4010E94140E4B015C010E
:1011B00029813A814B815C810E94140E2091430267
:1011C0003091440240914502509146020E94000C29
:1011D0006B017C012D813E814F815885C501B40191
:1011E0000E94140E2091470230914802409149021A
:1011F00050914A020E94000C4B015C0120E030E05B
:10120000A901C701B6010E946C0C87FD11C020E046
:1012100030E040E85FE3C701B6010E940F0E1816E8
:1012200054F4C12CD12C50E8E52E5FE3F52E03C019
:10123000C12CD12C7601C0924302D0924402E0929C
:101240004502F092460220E030E0A901C501B40158
:101250000E946C0C87FD11C020E030E040E85FE3A5
:10126000C501B4010E940F0E181654F4812C912C64
:1012700040E8A42E4FE3B42E03C0812C912C5401DE
:101280008092470290924802A0924902B0924A028C
:1012900020E030E0A901C701B6010E946C0C87FD77
:1012A00011C020E030E040E85FE3C701B6010E94D2
:1012B0000F0E181654F4C12CD12C30E8E32E3FE366
:1012C000F32E03C0C12CD12C760120E030E040E8A1
:1012D00059E4C701B6010E94140E0E94E80C9B015C
:1012E000AC01ACEBB2E00E94BB0B20E030E040E18F
:1012F00050E00E949C0BCA01B90164527A4F8F4F93
:101300009F4F8CE492E00E945A02C0904702D09016
:101310004802E0904902F0904A0220E030E0A90142
:10132000C701B6010E946C0C87FD11C020E030E0BF
:1013300040E85FE3C701B6010E940F0E181654F48F
:10134000C12CD12C20E8E22E2FE3F22E03C0C12CB9
:10135000D12C760120E030E040E859E4C701B60125
:101360000E94140E0E94E80C9B01AC01A4E1B5E0C0
:101370000E94BB0B20E030E040E150E00E949C0B5B
:10138000CA01B90160557B4F8F4F9F4F8BE492E0AC
:101390000E945A020091620110916301B801012E6E
:1013A000000C880B990B0E94200D20E030E040EAF1
:1013B00052E40E94760C9B01AC0160E070E080E892
:1013C0009FE30E94FF0B20E03EEF4FEF56E40E94A8
:1013D000140E0E94E80C6B017C01CB01770FAA0B65
:1013E000BB0B9C01AD0166277727CB01621B730BFA
:1013F000840B950B2FEF3FE740E050E00E949C0BE1
:10140000DA01C90181509F4FAF4FBF4F90932F0119
:1014100080932E019601A0ECBFEF0E94330F2FEFB7
:101420003FE740E050E00E949C0BDA01C901875A77
:101430009F4FAF4FBF4F9093310180933001960182
:10144000A5EBBFEF0E94330F2FEF3FE740E050E0E6
:101450000E949C0BDA01C9018C599F4FAF4FBF4FBF
:1014600090933301809332010E94740381E5C82E6A
:10147000D12CC01AD10ACC0CDD1C0D2C000CEE08AE
:10148000FF08609168017091690180916A019091F3
:101490006B01A70196010E94CE0B21E06C157D0522
:1014A0008E059F0508F020E0622F8DE00E94E60384
:1014B0000E94720162CB109291011092900188EE0D
:1014C00093E0A0E0B0E08093920190939301A09309
:1014D0009401B09395018EE091E090938F018093F9
:1014E0008E0185EC90E090939B0180939A0184ECAF
:1014F00090E090939D0180939C0180EC90E090930C
:101500009F0180939E0181EC90E09093A1018093D4
:10151000A00182EC90E09093A3018093A20186EC5D
:1015200090E09093A5018093A4011092A7011092DE
:10153000A8011092A9011092AA018091520288304C
:1015400030F48F5F8093520280934C0202C010925D
:101550004C0280915202883030F48F5F80935202A7
:1015600080934B0202C010924B0280E090E0A0E01A
:10157000BFE38093430290934402A0934502B0934B
:1015800046028093470290934802A0934902B09389
:101590004A0280933B0290933C02A0933D02B09399
:1015A0003E0280933F0290934002A0934102B09389
:1015B00042021092330210923402109235021092BD
:1015C00036021092370210923802109239021092AD
:1015D0003A0210922B0210922C0210922D021092BD
:1015E0002E0210922F0210923002109231021092AD
:1015F000320208958F929F92AF92BF92CF92DF9264
:10160000EF92FF92CF93DF93EC01688179818A8119
:101610009B81611571058105910521F464E279EDE5
:101620008BE597E02DE133EF41E050E00E949C0B09
:1016300049015A019B01AC01A7EAB1E40E94BB0B2E
:101640006B017C01ACEEB4EFA50194010E94C90BC3
:10165000DC01CB018C0D9D1DAE1DBF1DB7FF03C06E
:101660000197A109B04888839983AA83BB83BC01F1
:10167000CD019F77DF91CF91FF90EF90DF90CF90DA
:10168000BF90AF909F908F9008958F929F92AF924E
:10169000BF92CF92DF92EF92FF9260910001709122
:1016A000010180910201909103016115710581058D
:1016B000910521F464E279ED8BE597E02DE133EFBC
:1016C00041E050E00E949C0B49015A019B01AC0192
:1016D000A7EAB1E40E94BB0B6B017C01ACEEB4EF56
:1016E000A50194010E94C90BDC01CB018C0D9D1D4D
:1016F000AE1DBF1DB7FF03C00197A109B04880937D
:10170000000190930101A0930201B0930301BC0179
:10171000CD019F77FF90EF90DF90CF90BF90AF907B
:101720009F908F90089560930001709301018093C2
:101730000201909303010895052E97FB1EF4009477
:101740000E94B30B57FD07D00E94CE0B07FC03D0BD
:101750004EF40C94B30B50954095309521953F4F26
:101760004F4F5F4F089590958095709561957F4F8D
:101770008F4F9F4F08950E94F00BA59F900DB49F2F
:10178000900DA49F800D911D11240895B7FF0C9416
:10179000BB0B0E94BB0B821B930B0895A1E21A2E78
:1017A000AA1BBB1BFD010DC0AA1FBB1FEE1FFF1F05
:1017B000A217B307E407F50720F0A21BB30BE40B55
:1017C000F50B661F771F881F991F1A9469F760959C
:1017D0007095809590959B01AC01BD01CF01089556
:1017E000A29FB001B39FC001A39F700D811D112462
:1017F000911DB29F700D811D1124911D08955058A7
:10180000BB27AA270E94170C0C94C10D0E94880DBB
:1018100038F00E948F0D20F039F49F3F19F426F420
:101820000C94850D0EF4E095E7FB0C947F0DE92FE9
:101830000E94E60D58F3BA176207730784079507ED
:1018400020F079F4A6F50C94080E0EF4E0950B2E1A
:10185000BA2FA02D0B01B90190010C01CA01A00102
:101860001124FF27591B99F0593F50F4503E68F15D
:101870001A16F040A22F232F342F4427585FF3CF9E
:10188000469537952795A795F0405395C9F77EF46F
:101890001F16BA0B620B730B840BBAF09150A1F0B8
:1018A000FF0FBB1F661F771F881FC2F70EC0BA0F3E
:1018B000621F731F841F48F4879577956795B795C6
:1018C000F7959E3F08F0B0CF9395880F08F09927C1
:1018D000EE0F9795879508950E945B0D08F481E0BF
:1018E00008950E94980DE3950C94D20D0E948A0CE5
:1018F0000C94C10D0E948F0D58F00E94880D40F08D
:1019000029F45F3F29F00C947F0D51110C94090EBE
:101910000C94850D0E94E60D68F39923B1F35523CD
:1019200091F3951B550BBB27AA27621773078407F2
:1019300038F09F5F5F4F220F331F441FAA1FA9F388
:1019400035D00E2E3AF0E0E832D091505040E69576
:10195000001CCAF72BD0FE2F29D0660F771F881FD7
:10196000BB1F261737074807AB07B0E809F0BB0BCA
:10197000802DBF01FF2793585F4F3AF09E3F5105DE
:1019800078F00C947F0D0C94090E5F3FE4F3983EC1
:10199000D4F3869577956795B795F7959F5FC9F7C7
:1019A000880F911D9695879597F90895E1E0660F48
:1019B000771F881FBB1F621773078407BA0720F0C1
:1019C000621B730B840BBA0BEE1F88F7E09508952A
:1019D0000E94EF0C6894B1110C94090E08950E94B6
:1019E000EE0D88F09F5798F0B92F9927B751B0F0B6
:1019F000E1F0660F771F881F991F1AF0BA95C9F793
:101A000014C0B13091F00E94080EB1E008950C941A
:101A1000080E672F782F8827B85F39F0B93FCCF3CD
:101A2000869577956795B395D9F73EF4909580950F
:101A3000709561957F4F8F4F9F4F0895E89409C02F
:101A400097FB3EF490958095709561957F4F8F4FF1
:101A50009F4F9923A9F0F92F96E9BB279395F69507
:101A6000879577956795B795F111F8CFFAF4BB0F85
:101A700011F460FF1BC06F5F7F4F8F4F9F4F16C0E9
:101A8000882311F096E911C0772321F09EE8872F73
:101A9000762F05C0662371F096E8862F70E060E02F
:101AA0002AF09A95660F771F881FDAF7880F9695A8
:101AB000879597F90895990F0008550FAA0BE0E84C
:101AC000FEEF16161706E807F907C0F01216130600
:101AD000E407F50798F0621B730B840B950B39F440
:101AE0000A2661F0232B242B252B21F408950A26A6
:101AF00009F4A140A6958FEF811D811D089597F9E6
:101B00009F6780E870E060E008959FEF80EC0895A3
:101B100000240A94161617061806090608950024CC
:101B20000A94121613061406050608950C94850DE2
:101B30000E94EE0DD8F3E894E0E0BB279F57F0F049
:101B40002AED3FE049EC06C0EE0FBB0F661F771F82
:101B5000881F28F0B23A62077307840728F0B25A48
:101B6000620B730B840BE3959A9572F7803830F40F
:101B70009A95BB0F661F771F881FD2F790480C9469
:101B8000D10E092E0394000C11F4882352F0BB0FE0
:101B900040F4BF2B11F460FF04C06F5F7F4F8F4F85
:101BA0009F4F0895EF93E0FF07C0A2EA2AED3FE0C0
:101BB00049EC5FEB0E94170C0E94C10D0F9003943B
:101BC00001FC9058E8E6F0E00C94E40E57FD9058C4
:101BD000440F551F59F05F3F71F04795880F97FBF1
:101BE000991F61F09F3F79F08795089512161306AB
:101BF0001406551FF2CF4695F1DF08C016161706DA
:101C00001806991FF1CF869571056105089408950E
:101C1000E894BB2766277727CB0197F908950E94A0
:101C20005B0D08F48FEF08950E94270E0C94C10DF0
:101C30000E94880D38F00E948F0D20F0952311F03E
:101C40000C947F0D0C94850D11240C94090E0E94A8
:101C5000E60D70F3959FC1F3950F50E0551F629FFD
:101C6000F001729FBB27F00DB11D639FAA27F00DF5
:101C7000B11DAA1F649F6627B00DA11D661F829F1C
:101C80002227B00DA11D621F739FB00DA11D621F01
:101C9000839FA00D611D221F749F3327A00D611D1E
:101CA000231F849F600D211D822F762F6A2F112400
:101CB0009F5750409AF0F1F088234AF0EE0FFF1F33
:101CC000BB1F661F771F881F91505040A9F79E3F8A
:101CD000510580F00C947F0D0C94090E5F3FE4F3E6
:101CE000983ED4F3869577956795B795F795E795E0
:101CF0009F5FC1F7FE2B880F911D9695879597F9E9
:101D000008959F930E94980D0F9007FCEE5F0C942E
:101D1000D20D19F416F40C94850D0C94CF0E0E947C
:101D2000EE0DB8F39923C9F3B6F39F57550B87FF10
:101D30000E94DD0E0024A0E640EA900180585695EE
:101D4000979528F4805C660F771F881F20F0261770
:101D50003707480730F4621B730B840B20293129A5
:101D60004A2BA69517940794202531254A2758F722
:101D7000660F771F881F20F026173707480730F4B3
:101D8000620B730B840B200D311D411DA09581F753
:101D9000B901842F9158880F9695879508959F3F94
:101DA00031F0915020F4879577956795B795880F16
:101DB000911D9695879597F9089591505040660F1B
:101DC000771F881FD2F708959F938F937F936F9308
:101DD000FF93EF939B01AC010E94140EEF91FF91D2
:101DE0000E94F80E2F913F914F915F910C94140E29
:101DF000DF93CF931F930F93FF92EF92DF927B01BC
:101E00008C01689406C0DA2EEF010E94270EFE01B5
:101E1000E894A5912591359145915591A6F3EF014F
:101E20000E94170CFE019701A801DA9469F7DF9070
:101E3000EF90FF900F911F91CF91DF91089597FB45
:101E4000072E16F4009407D077FD09D00E94420FA8
:101E500007FC05D03EF4909581959F4F08957095AD
:101E600061957F4F08950E94F00B332312F48A1B73
:101E70009B0B0C943D0F0E94F00BB7FF0895821B43
:101E8000930B0895AA1BBB1B51E107C0AA1FBB1FE0
:101E9000A617B70710F0A61BB70B881F991F5A95F6
:101EA000A9F780959095BC01CD010895EE0FFF1F15
:101EB0000590F491E02D099481E090E0F8940C9461
:061EC000610FF894FFCF52
:101EC60001000000FF00FF00FF000000000003010A
:101ED60089039A005001CB00A900BD0073687920E0
:0E1EE6006D6972726F72207632000D0A000074
:00000001FF
